{
  "_format": "hh-sol-artifact-1",
  "contractName": "BuyMeACoffee",
  "sourceName": "contracts/BuyMeACoffee.sol",
  "abi": [
    {
      "inputs": [],
      "stateMutability": "nonpayable",
      "type": "constructor"
    },
    {
      "anonymous": false,
      "inputs": [
        {
          "indexed": true,
          "internalType": "address",
          "name": "from",
          "type": "address"
        },
        {
          "indexed": false,
          "internalType": "uint256",
          "name": "timestamp",
          "type": "uint256"
        },
        {
          "indexed": false,
          "internalType": "string",
          "name": "name",
          "type": "string"
        },
        {
          "indexed": false,
          "internalType": "string",
          "name": "message",
          "type": "string"
        }
      ],
      "name": "NewMemo",
      "type": "event"
    },
    {
      "inputs": [
        {
          "internalType": "string",
          "name": "_name",
          "type": "string"
        },
        {
          "internalType": "string",
          "name": "_message",
          "type": "string"
        }
      ],
      "name": "buyCoffee",
      "outputs": [],
      "stateMutability": "payable",
      "type": "function"
    },
    {
      "inputs": [],
      "name": "getMemos",
      "outputs": [
        {
          "components": [
            {
              "internalType": "address",
              "name": "from",
              "type": "address"
            },
            {
              "internalType": "uint256",
              "name": "timestamp",
              "type": "uint256"
            },
            {
              "internalType": "string",
              "name": "name",
              "type": "string"
            },
            {
              "internalType": "string",
              "name": "message",
              "type": "string"
            }
          ],
          "internalType": "struct BuyMeACoffee.Memo[]",
          "name": "",
          "type": "tuple[]"
        }
      ],
      "stateMutability": "view",
      "type": "function"
    },
    {
      "inputs": [],
      "name": "withdrawTips",
      "outputs": [],
      "stateMutability": "nonpayable",
      "type": "function"
    }
  ],
  "bytecode": "0x608060405234801561001057600080fd5b50336000806101000a81548173ffffffffffffffffffffffffffffffffffffffff021916908373ffffffffffffffffffffffffffffffffffffffff160217905550610ba2806100606000396000f3fe6080604052600436106100345760003560e01c8063204206e1146100395780633aaa74b214610055578063865c51721461006c575b600080fd5b610053600480360381019061004e9190610603565b610097565b005b34801561006157600080fd5b5061006a61021f565b005b34801561007857600080fd5b5061008161030d565b60405161008e9190610853565b60405180910390f35b600034116100da576040517f08c379a00000000000000000000000000000000000000000000000000000000081526004016100d190610895565b60405180910390fd5b600160405180608001604052803373ffffffffffffffffffffffffffffffffffffffff16815260200142815260200184815260200183815250908060018154018082558091505060019003906000526020600020906004020160009091909190915060008201518160000160006101000a81548173ffffffffffffffffffffffffffffffffffffffff021916908373ffffffffffffffffffffffffffffffffffffffff1602179055506020820151816001015560408201518160020190805190602001906101a99291906104f0565b5060608201518160030190805190602001906101c69291906104f0565b5050503373ffffffffffffffffffffffffffffffffffffffff167fc56140e05f516509ae28110e0f72e17558a7561630dad2647c3ae87d986e365c428484604051610213939291906108b5565b60405180910390a25050565b60008054906101000a900473ffffffffffffffffffffffffffffffffffffffff1673ffffffffffffffffffffffffffffffffffffffff163373ffffffffffffffffffffffffffffffffffffffff16146102ad576040517f08c379a00000000000000000000000000000000000000000000000000000000081526004016102a490610875565b60405180910390fd5b60008054906101000a900473ffffffffffffffffffffffffffffffffffffffff1673ffffffffffffffffffffffffffffffffffffffff166108fc479081150290604051600060405180830381858888f1935050505061030b57600080fd5b565b60606001805480602002602001604051908101604052809291908181526020016000905b828210156104e757838290600052602060002090600402016040518060800160405290816000820160009054906101000a900473ffffffffffffffffffffffffffffffffffffffff1673ffffffffffffffffffffffffffffffffffffffff1673ffffffffffffffffffffffffffffffffffffffff168152602001600182015481526020016002820180546103c490610a34565b80601f01602080910402602001604051908101604052809291908181526020018280546103f090610a34565b801561043d5780601f106104125761010080835404028352916020019161043d565b820191906000526020600020905b81548152906001019060200180831161042057829003601f168201915b5050505050815260200160038201805461045690610a34565b80601f016020809104026020016040519081016040528092919081815260200182805461048290610a34565b80156104cf5780601f106104a4576101008083540402835291602001916104cf565b820191906000526020600020905b8154815290600101906020018083116104b257829003601f168201915b50505050508152505081526020019060010190610331565b50505050905090565b8280546104fc90610a34565b90600052602060002090601f01602090048101928261051e5760008555610565565b82601f1061053757805160ff1916838001178555610565565b82800160010185558215610565579182015b82811115610564578251825591602001919060010190610549565b5b5090506105729190610576565b5090565b5b8082111561058f576000816000905550600101610577565b5090565b60006105a66105a18461091f565b6108fa565b9050828152602081018484840111156105c2576105c1610afa565b5b6105cd8482856109f2565b509392505050565b600082601f8301126105ea576105e9610af5565b5b81356105fa848260208601610593565b91505092915050565b6000806040838503121561061a57610619610b04565b5b600083013567ffffffffffffffff81111561063857610637610aff565b5b610644858286016105d5565b925050602083013567ffffffffffffffff81111561066557610664610aff565b5b610671858286016105d5565b9150509250929050565b600061068783836107cb565b905092915050565b610698816109b6565b82525050565b60006106a982610960565b6106b38185610983565b9350836020820285016106c585610950565b8060005b8581101561070157848403895281516106e2858261067b565b94506106ed83610976565b925060208a019950506001810190506106c9565b50829750879550505050505092915050565b600061071e8261096b565b6107288185610994565b9350610738818560208601610a01565b61074181610b09565b840191505092915050565b60006107578261096b565b61076181856109a5565b9350610771818560208601610a01565b61077a81610b09565b840191505092915050565b60006107926019836109a5565b915061079d82610b1a565b602082019050919050565b60006107b5601a836109a5565b91506107c082610b43565b602082019050919050565b60006080830160008301516107e3600086018261068f565b5060208301516107f66020860182610835565b506040830151848203604086015261080e8282610713565b915050606083015184820360608601526108288282610713565b9150508091505092915050565b61083e816109e8565b82525050565b61084d816109e8565b82525050565b6000602082019050818103600083015261086d818461069e565b905092915050565b6000602082019050818103600083015261088e81610785565b9050919050565b600060208201905081810360008301526108ae816107a8565b9050919050565b60006060820190506108ca6000830186610844565b81810360208301526108dc818561074c565b905081810360408301526108f0818461074c565b9050949350505050565b6000610904610915565b90506109108282610a66565b919050565b6000604051905090565b600067ffffffffffffffff82111561093a57610939610ac6565b5b61094382610b09565b9050602081019050919050565b6000819050602082019050919050565b600081519050919050565b600081519050919050565b6000602082019050919050565b600082825260208201905092915050565b600082825260208201905092915050565b600082825260208201905092915050565b60006109c1826109c8565b9050919050565b600073ffffffffffffffffffffffffffffffffffffffff82169050919050565b6000819050919050565b82818337600083830152505050565b60005b83811015610a1f578082015181840152602081019050610a04565b83811115610a2e576000848401525b50505050565b60006002820490506001821680610a4c57607f821691505b60208210811415610a6057610a5f610a97565b5b50919050565b610a6f82610b09565b810181811067ffffffffffffffff82111715610a8e57610a8d610ac6565b5b80604052505050565b7f4e487b7100000000000000000000000000000000000000000000000000000000600052602260045260246000fd5b7f4e487b7100000000000000000000000000000000000000000000000000000000600052604160045260246000fd5b600080fd5b600080fd5b600080fd5b600080fd5b6000601f19601f8301169050919050565b7f4e6f74206f776e6572206f662074686520636f6e747261637400000000000000600082015250565b7f63616e27742062757920636f6666656520666f7220667265652100000000000060008201525056fea2646970667358221220f498e9fe52e378b9ed4b80cd4322781196256b76e5d185196251b9b2b8121e7064736f6c63430008070033",
  "linkReferences": {},
  "deployedLinkReferences": {}
}